:1000000083C09CC09BC09AC099C098C097C096C03E
:1000100095C094C093C061C591C090C08FC08EC080
:100020008DC08CC08BC0EBC4E8C4AAC4A9C4A8C44A
:10003000A7C4A6C4A5C4A4C4A3C4A2C4A1C4A0C484
:100040009FC49EC49DC4D2C4CAC49AC499C498C44F
:1000500097C496C495C494C493C492C491C490C4E4
:100060008FC48EC48DC4B4C4ACC48AC489C488C4CB
:1000700087C486C485C484C483C482C481C480C444
:100080007FC47EC47DC49BC47BC47AC479C478C455
:1000900077C476C475C474C473C472C471C470C4A4
:1000A0006FC46EC46DC489C486C46AC47DC468C488
:1000B00067C466C465C464C463C462C461C460C404
:1000C0005FC45EC45DC46EC466C45AC459C458C417
:1000D00057C456C455C454C453C452C451C450C464
:1000E0004FC44EC44DC450C44BC44AC449C448C490
:1000F00047C446C445C444C443C442C441C440C4C4
:100100003FC43EC43DC43EC411241FBECFE5D4E06D
:10011000DEBFCDBF10E0A0E6B0E0E4E1FFE002C04A
:1001200005900D92A436B107D9F710E0A4E6B0E02F
:1001300001C01D92AB3EB107E1F770C461CFCF9310
:10014000DF93A1E0B0E0DED6802DC82FDD278C2F15
:1001500081588E3258F58C2F992787FD9095A92FBD
:10016000B92FBC01CD012ED6C7FD0EC026EA3BE952
:1001700044E85FE37CD6DC01CB01BC01CD0105D6B0
:10018000DC01CB0181BF12C020E030E040E853E445
:10019000BAD526EA3BE944E85FE369D6DC01CB0146
:1001A000BC01CD01F2D5DC01CB0181BFDF91CF9144
:1001B000089580E090E00895FC01DB0184E48083F1
:1001C00089E4818383E5828383E483838FE484836A
:1001D00085E08C9380E090E00895FC01DB01809144
:1001E0006400808380916500818382E08C9380E04D
:1001F00090E00895FC01DB0181E3808381E08C9332
:1002000080E090E008958AE081BB84E084BB87EFC2
:1002100082BB15BADED488E015D4089580E01CD4E2
:1002200044D48235E1F780E090E00895EF92FF92A8
:100230000F931F93CF93DF93C82F7B01042F0CD410
:100240005D9BFECFCC2349F41C2FC01730F4E7018F
:10025000899102D41F5F1017D8F380ED97E00197C2
:10026000F1F782B398E0892782BBDF91CF911F918C
:100270000F91FF90EF900895CF93DF93382FA0E078
:1002800040E050E0FA01BA019A2FC0E6D0E029918F
:100290002317B9F0822F81608317B1F0822F886015
:1002A0008317B1F029602317B9F0AF5F9C5F6C5FD3
:1002B0007F4F34964C5F5F4FA43048F38FEF90E050
:1002C0000EC0892F99270BC0862F8160992707C000
:1002D0008E2F8260992703C0842F83609927DF9136
:1002E000CF910895C9DF982F8031A8F4869586951F
:1002F0008695E82FFF27EC59FF4F892F99278770A4
:10030000907021E030E002C0220F331F8A95E2F79F
:100310008081822B80830895AFDF982F8031E0F4B5
:10032000869586958695482F5527FA01EA59FF4FFD
:10033000892F99278770907021E030E002C0220F4A
:10034000331F8A95E2F78081822B8083FA01EC5972
:10035000FF4F8081822B808308958EDF282F80318C
:10036000E8F4869586958695482F5527FA01EA592F
:10037000FF4F33272770307081E090E002C0880F74
:10038000991F2A95E2F7982F909580818923808381
:10039000FA01EC59FF4F80818923808308956CDF37
:1003A000982F8F3FC1F0869586958695E82FFF2779
:1003B000EA59FF4F8081282F3327892F992787708B
:1003C000907002C0359527958A95E2F7C901817032
:1003D000907020FF02C081E090E008951F93CF93BA
:1003E000DF93CDB7DEB723970FB6F894DEBF0FBE0D
:1003F000CDBF182F8FE089831A8242E0BE016F5F64
:100400007F4F812F3FD4882391F486E089838FEF3B
:100410008A838B8343E0BE016F5F7F4F812F32D48D
:10042000882329F4812F99DF80E090E004C0812F98
:1004300073DF84E090E023960FB6F894DEBF0FBE22
:10044000CDBFDF91CF911F910895FF920F931F931E
:10045000CF93DF93CDB7DEB729970FB6F894DEBF01
:100460000FBECDBFF82E8B019ADF8823C1F480E147
:100470008983DE011296F80197E081918D93915066
:1004800097FFFBCF49E0BE016F5F7F4F8F2DFAD3FF
:10049000882329F48F2D61DF80E090E004C08F2D48
:1004A00021DF84E090E029960FB6F894DEBF0FBEFE
:1004B000CDBFDF91CF911F910F91FF900895DF92F3
:1004C000EF92FF920F931F938B01E82EFF2480E69B
:1004D00090E0E80EF91EF7018081B7DFD82E085FA3
:1004E0001F4FF701F080B8018F2D8160AEDFD82A51
:1004F000085F1F4FB8018F2D8860A7DFD82A8D2D88
:1005000099271F910F91FF90EF90DF900895FF9230
:100510000F931F938C01BC0180E0D1DFF82E085EA1
:100520001F4FB80181E0CBDFF82A085E1F4FB801EA
:1005300082E0C5DFF82A085E1F4FB80183E0BFDF05
:10054000F82A8F2D99271F910F91FF900895CF932F
:10055000DF93CDB7DEB7C056D0400FB6F894DEBFFC
:100560000FBECDBF9FEFFE0131968FE59193815075
:1005700087FFFCCFCE010196CADF9927C05ADF4F13
:100580000FB6F894DEBF0FBECDBFDF91CF910895B7
:10059000CF93DF93CDB7DEB7C056D0400FB6F894F7
:1005A000DEBF0FBECDBFBE016F5F7F4F80E6DDD2E5
:1005B000882329F4CE010196AADF992702C082E0A0
:1005C00090E0C05ADF4F0FB6F894DEBF0FBECDBF2C
:1005D000DF91CF910895CF93DF93CDB7DEB76997C1
:1005E0000FB6F894DEBF0FBECDBFBE016F5F7F4F69
:1005F00089E1BBD2882339F4BE016E5F7F4F8981C8
:100600005EDF992702C082E090E069960FB6F89409
:10061000DEBF0FBECDBFDF91CF9108950F931F9323
:10062000CF93DF93CDB7DEB728970FB6F894DEBF30
:100630000FBECDBF80E010D28E010F5F1F4F89D259
:10064000882319F032D28F3869F098E8F80187E0F2
:100650009193815087FFFCCFBE016F5F7F4F80E297
:10066000F4DEEDCF80E090E028960FB6F894DEBF80
:100670000FBECDBFDF91CF911F910F910895FF92D3
:100680000F931F93CF93DF93CDB7DEB723970FB6AA
:10069000F894DEBF0FBECDBF182F8FE0898388E0AE
:1006A0008A8342E0BE016F5F7F4F812FEBD2982F8C
:1006B000882351F586E089839A839B8343E0BE01BA
:1006C0006F5F7F4F812FDED28823F1F482E0F82E16
:1006D000F9820FEF0A830B8343E0BE016F5F7F4F08
:1006E000812FD0D2882381F48EE089830A834F2D15
:1006F000BE016F5F7F4F812FC5D2882329F4812FE0
:100700002CDE80E090E004C0812F06DE84E090E0E3
:1007100023960FB6F894DEBF0FBECDBFDF91CF9109
:100720001F910F91FF900895FF920F931F93082F31
:100730001127005A1F4FF8018081A1DFF82EF80120
:100740001081812F81609BDFF82A812F886097DFDD
:10075000F82A812F896042DEF82A8F2D99271F9170
:100760000F91FF9008951F93CF9310E0C12F8C2F0E
:10077000DBDF182BCF5FC430D0F3812F9927CF91C7
:100780001F910895F0DF992708950F931F93CF933A
:10079000C82F8B0104DE882329F48C2F880F1DD2EB
:1007A000882329F08C2F9EDD84E090E00DC046D296
:1007B0008823C1F742E0B8018C2F85D2882391F7B6
:1007C0008C2FCBDD80E090E0CF911F910F910895A9
:1007D000DCDF99270895EF92FF920F931F93CF9339
:1007E000DF93CDB7DEB769970FB6F894DEBF0FBEC3
:1007F000CDBF7C018B01BE016F5F7F4F89E1B5D119
:10080000882381F482E0F8018083BE016E5F7F4F10
:10081000898155DE182FB7018981DADF182B812FE6
:10082000992702C082E090E069960FB6F894DEBF87
:100830000FBECDBFDF91CF911F910F91FF90EF9031
:100840000895EF92FF920F931F93CF93DF93CDB74D
:10085000DEB721970FB6F894DEBF0FBECDBF7C0187
:100860008B01BE016F5F7F4F81E07FD1882341F410
:1008700082E0F8018083B7018981AADF992702C04D
:1008800082E090E021960FB6F894DEBF0FBECDBF98
:10089000DF91CF911F910F91FF90EF900895FF92FC
:1008A0000F931F938C01BC0189E26FDFF82E0E5F5E
:1008B0001F4FB8018BE269DFF82A0E5F1F4FB801A6
:1008C00089E163DFF82A0E5F1F4FB8018BE15DDF1E
:1008D000F82A8F2D99271F910F91FF900895EF927D
:1008E000FF920F931F93CF93DF93CDB7DEB7C05620
:1008F000D0400FB6F894DEBF0FBECDBF7C018B0198
:10090000BE016F5F7F4F80E630D1882369F488E0B5
:10091000F8018083CE010196FADD182FC701BFDFF1
:10092000182B812F992702C082E090E0C05ADF4F38
:100930000FB6F894DEBF0FBECDBFDF91CF911F91F0
:100940000F91FF90EF900895FB0128E02083A7DF2F
:1009500099270895CF93DF93CDB7DEB729970FB6C8
:10096000F894DEBF0FBECDBF19869927AA27BB27F3
:10097000FC017097E137F10518F4ED5EFF4F099423
:1009800081E03EC04BDE3CC0BE01675F7F4FCE01C1
:10099000019630DC35C0BE01675F7F4FCE01019606
:1009A0001CDC2EC0EFDE2CC0BE01675F7F4FCE0186
:1009B000019602DC25C032DC23C0FBDB21C0C7DD91
:1009C0001FC0BE01675F7F4FCE01019604DF18C0D4
:1009D000BE01675F7F4FCE01019681DF11C0BE016E
:1009E000675F7F4FCE0101962CDF0AC0BE01675FB3
:1009F0007F4FCE010196A8DF03C0EDDD01C0C8DD49
:100A00004985BE016F5F7F4F11DC29960FB6F894C0
:100A1000DEBF0FBECDBFDF91CF910895CFE5D4E00B
:100A2000DEBFCDBF8CDBEFDB9EDE91DD3ED092DF03
:100A30003CD090DFFBCF1092E8001092E9001092BA
:100A4000EA00089510BC89B91BB886E880BD88E922
:100A50008AB97894F0DF08955D9BFECF8CB9089534
:100A6000EF92FF920F931F93CF93DF93DC010D90D2
:100A70000020E9F77D010894E108F108E81AF90A75
:100A8000C0E0D0E0CE15DF054CF48C01F801819177
:100A90008F01E2DF2196CE15DF05C4F3DF91CF9100
:100AA0001F910F91FF90EF9008959091E800809131
:100AB000E9009817D1F39091E9009F5F9F77909399
:100AC000E9008091EA0081508093EA00E92FFF2736
:100AD000E859FF4F8081992708951F920F920FB612
:100AE0000F9211241F932F933F934F935F936F9314
:100AF0007F938F939F93AF93BF93CF93EF93FF9386
:100B00001CB1C091E800CF5FCF77C093E80080911F
:100B1000E900C81709F48FDF8091EA008F5F8093A6
:100B2000EA00EC2FFF27E859FF4F1083FF91EF9168
:100B3000CF91BF91AF919F918F917F916F915F9175
:100B40004F913F912F911F910F900FBE0F901F90CB
:100B5000189520E030E09091E8008091E900981726
:100B600011F021E030E0C9010895CF92DF92EF92B9
:100B7000FF920F931F93CF93DF937B0100E010E070
:100B8000C82EDD241C141D04B0F4C0E0D0E004C065
:100B90002196CF3FD10538F4DCDF8823C9F385DF08
:100BA000F70181937F01CF3FD10541F00F5F1F4FC8
:100BB0000C151D0550F380E090E002C081E090E04C
:100BC000DF91CF911F910F91FF90EF90DF90CF9029
:100BD000089511B88AE080B90895282F84EA86BF65
:100BE00006B607FEFDCF81B19927887F90700897E0
:100BF00049F081B19927887F9070409719F081E082
:100C000090E0089523B984E886BF06B607FEFDCFBD
:100C100081B19927887F9070489739F081B19927E1
:100C2000887F90708034910551F780E090E00895BE
:100C300084E986BF06B604FCFDCF089583B984E835
:100C400086BF06B607FEFDCF81B19927887F9070D9
:100C5000889719F081E090E0089580E090E0089591
:100C600099270024969587950794969587950794DC
:100C7000982F802D846886BF06B607FEFDCF83B10E
:100C800099270895EF92FF920F931F93CF937B01C3
:100C9000042F880FA2DFC82F10E0101758F4CC23C0
:100CA00049F4F701E10FF11D8081C8DFC82B1F5FF8
:100CB0001017A8F3BDDF8C2F9927CF911F910F91AB
:100CC000FF90EF9008950F931F93CF93DF93EB0165
:100CD000142F9927880F991F81607FDF082F12300A
:100CE00030F081E0BDDF899311501230D0F780E001
:100CF000B7DF88839DDF802F9927DF91CF911F91E8
:100D00000F9108955058192E84D001D06AC0BA1797
:100D10006207730784079507B1F188F40EF4109405
:100D20000B2EBA2FA02D062E622F202D072E732FEB
:100D3000302D082E842F402D092E952F502DFF2762
:100D40005523B9F0591B49F0573E98F04695379511
:100D50002795A795F0405395C9F776F0BA0F621F13
:100D6000731F841F30F4879577956795B795F0408A
:100D7000939517FA0F2E0895BF1BBB27BA0B620B72
:100D8000730B840BF6CFDEF670C097FB4ED09F3707
:100D900038F0FEE9F91B982F872F762F6B2F05C0AF
:100DA00061C09695879577956795F150D0F73EF499
:100DB00090958095709561957F4F8F4F9F4F0895C7
:100DC000E89403C097FB0EF4F3DFB62F672F782F5C
:100DD000892F9EE9002405C09A95BB0F661F771FD7
:100DE000881F11249923A1F08823B2F79F3F59F05F
:100DF000BB0F48F421F4002011F460FF04C06F5FC2
:100E00007F4F8F4F9F4F881F9795879597F908952C
:100E100029C0052E092607FA440F551F5F3F79F0B8
:100E2000AA27A51708F051E04795880F991F9F3F03
:100E300031F0BB27B91708F091E0879508959F918D
:100E40009F9111245CC097FB880F991F9F3F31F041
:100E5000BB27B91708F091E0879508959F919F915E
:100E600011244DC066277727882799270895D1DF59
:100E700001D0B7CF992339F0552329F09F575F57F9
:100E8000950F13F49AF1F1CF91589F3FE1F3629FD0
:100E9000A12D0F92BB27639FA00DB11DEE27729F5E
:100EA000A00DB11DEE1FAF93AA27649FB00DE11DE9
:100EB000739FB00DE11DAA1F6627829FB00DE11D33
:100EC000A61F5527749FE00DA11D551F839FE00DA0
:100ED000A11D561F849FA00D511D852F7A2F6E2FA7
:100EE0001F900F9088231AF4939539F408C0000CD2
:100EF000111CBB1F661F771F881F012808959FEFD5
:100F000080EC0895E199FECFBFBBAEBBE09A11968D
:040F10000DB2089581
:040F14002022101275
:00000001FF
